:0C08EE000A08C0F9A4B0999282F880902A
:10088C007590FFAF908FB0E590C4540F7512005463
:10089C000FF513E590540FFD7C0074082513F8E652
:1008AC00F5A0C282E4FBFA0BBB00010ABA27F8BB25
:1008BC0010F5D282AE0574082DF8E6F5A0C283E4DB
:1008CC00FAFB0BBB00010ABA27F8BB10F5D283EF79
:1008DC0064137006C280C28180A9C281D280D28189
:0208EC0080A1E9
:03000000020800F3
:0C080000787FE4F6D8FD758113020847EC
:10080C0002088CE493A3F8E493A34003F68001F26E
:10081C0008DFF48029E493A3F85407240CC8C333ED
:10082C00C4540F4420C8834004F456800146F6DFBC
:10083C00E4800B01020408102040809008EEE47E56
:10084C00019360BCA3FF543F30E509541FFEE493B1
:10085C00A360010ECF54C025E060A840B8E493A378
:10086C00FAE493A3F8E493A3C8C582C8CAC583CAA3
:10087C00F0A3C8C582C8CAC583CADFE9DEE780BE5B
:0108FA0000FD
:00000001FF
